{
  "_format": "hh-sol-artifact-1",
  "contractName": "AtomicSwapERC20A",
  "sourceName": "contracts/SwapERC20A.sol",
  "abi": [
    {
      "anonymous": false,
      "inputs": [
        {
          "indexed": false,
          "internalType": "bytes32",
          "name": "_swapID",
          "type": "bytes32"
        },
        {
          "indexed": false,
          "internalType": "bytes",
          "name": "_secretKey",
          "type": "bytes"
        }
      ],
      "name": "Close",
      "type": "event"
    },
    {
      "anonymous": false,
      "inputs": [
        {
          "indexed": false,
          "internalType": "bytes32",
          "name": "_swapID",
          "type": "bytes32"
        }
      ],
      "name": "Expire",
      "type": "event"
    },
    {
      "anonymous": false,
      "inputs": [
        {
          "indexed": false,
          "internalType": "bytes32",
          "name": "_swapID",
          "type": "bytes32"
        },
        {
          "indexed": false,
          "internalType": "address",
          "name": "_withdrawTrader",
          "type": "address"
        },
        {
          "indexed": false,
          "internalType": "bytes32",
          "name": "_secretLock",
          "type": "bytes32"
        }
      ],
      "name": "Open",
      "type": "event"
    },
    {
      "inputs": [
        {
          "internalType": "bytes32",
          "name": "_swapID",
          "type": "bytes32"
        }
      ],
      "name": "check",
      "outputs": [
        {
          "internalType": "uint256",
          "name": "timelock",
          "type": "uint256"
        },
        {
          "internalType": "uint256",
          "name": "erc20Value",
          "type": "uint256"
        },
        {
          "internalType": "address",
          "name": "erc20ContractAddress",
          "type": "address"
        },
        {
          "internalType": "address",
          "name": "withdrawTrader",
          "type": "address"
        },
        {
          "internalType": "bytes32",
          "name": "secretLock",
          "type": "bytes32"
        }
      ],
      "stateMutability": "view",
      "type": "function"
    },
    {
      "inputs": [
        {
          "internalType": "bytes32",
          "name": "_swapID",
          "type": "bytes32"
        }
      ],
      "name": "checkSecretKey",
      "outputs": [
        {
          "internalType": "bytes",
          "name": "secretKey",
          "type": "bytes"
        }
      ],
      "stateMutability": "view",
      "type": "function"
    },
    {
      "inputs": [
        {
          "internalType": "bytes32",
          "name": "_swapID",
          "type": "bytes32"
        },
        {
          "internalType": "bytes",
          "name": "_secretKey",
          "type": "bytes"
        }
      ],
      "name": "close",
      "outputs": [],
      "stateMutability": "nonpayable",
      "type": "function"
    },
    {
      "inputs": [
        {
          "internalType": "bytes32",
          "name": "_swapID",
          "type": "bytes32"
        }
      ],
      "name": "expire",
      "outputs": [],
      "stateMutability": "nonpayable",
      "type": "function"
    },
    {
      "inputs": [
        {
          "internalType": "bytes32",
          "name": "_swapID",
          "type": "bytes32"
        },
        {
          "internalType": "uint256",
          "name": "_erc20Value",
          "type": "uint256"
        },
        {
          "internalType": "address",
          "name": "_erc20ContractAddress",
          "type": "address"
        },
        {
          "internalType": "address",
          "name": "_withdrawTrader",
          "type": "address"
        },
        {
          "internalType": "bytes32",
          "name": "_secretLock",
          "type": "bytes32"
        },
        {
          "internalType": "uint256",
          "name": "_timelock",
          "type": "uint256"
        }
      ],
      "name": "open",
      "outputs": [],
      "stateMutability": "nonpayable",
      "type": "function"
    }
  ],
  "bytecode": "0x608060405234801561001057600080fd5b50611aa4806100206000396000f3fe608060405234801561001057600080fd5b50600436106100575760003560e01c80631a26720c1461005c578063399e0792146100785780635d44011e146100ac578063c6441798146100c8578063f200e404146100e4575b600080fd5b610076600480360381019061007191906114fb565b610114565b005b610092600480360381019061008d91906114a9565b61056c565b6040516100a39594939291906117dc565b60405180910390f35b6100c660048036038101906100c1919061154f565b610773565b005b6100e260048036038101906100dd91906114a9565b610c9b565b005b6100fe60048036038101906100f991906114a9565b611076565b60405161010b91906117ba565b60405180910390f35b816001600381111561014f577f4e487b7100000000000000000000000000000000000000000000000000000000600052602160045260246000fd5b6001600083815260200190815260200160002060009054906101000a900460ff1660038111156101a8577f4e487b7100000000000000000000000000000000000000000000000000000000600052602160045260246000fd5b146101b257600080fd5b82826002816040516101c49190611698565b602060405180830381855afa1580156101e1573d6000803e3d6000fd5b5050506040513d601f19601f8201168201806040525081019061020491906114d2565b600080848152602001908152602001600020600501541461022457600080fd5b60008060008781526020019081526020016000206040518060e001604052908160008201548152602001600182015481526020016002820160009054906101000a900473ffffffffffffffffffffffffffffffffffffffff1673ffffffffffffffffffffffffffffffffffffffff1673ffffffffffffffffffffffffffffffffffffffff1681526020016003820160009054906101000a900473ffffffffffffffffffffffffffffffffffffffff1673ffffffffffffffffffffffffffffffffffffffff1673ffffffffffffffffffffffffffffffffffffffff1681526020016004820160009054906101000a900473ffffffffffffffffffffffffffffffffffffffff1673ffffffffffffffffffffffffffffffffffffffff1673ffffffffffffffffffffffffffffffffffffffff1681526020016005820154815260200160068201805461037390611940565b80601f016020809104026020016040519081016040528092919081815260200182805461039f90611940565b80156103ec5780601f106103c1576101008083540402835291602001916103ec565b820191906000526020600020905b8154815290600101906020018083116103cf57829003601f168201915b50505050508152505090508460008088815260200190815260200160002060060190805190602001906104209291906112f7565b5060026001600088815260200190815260200160002060006101000a81548160ff0219169083600381111561047e577f4e487b7100000000000000000000000000000000000000000000000000000000600052602160045260246000fd5b02179055506000816060015190508073ffffffffffffffffffffffffffffffffffffffff1663a9059cbb836080015184602001516040518363ffffffff1660e01b81526004016104cf92919061170f565b602060405180830381600087803b1580156104e957600080fd5b505af11580156104fd573d6000803e3d6000fd5b505050506040513d601f19601f820116820180604052508101906105219190611480565b61052a57600080fd5b7f692fd10a275135b9a2a2f5819db3d9965a5129ea2ad3640a0156dbce2fc81bdd878760405161055b92919061178a565b60405180910390a150505050505050565b6000806000806000806000808881526020019081526020016000206040518060e001604052908160008201548152602001600182015481526020016002820160009054906101000a900473ffffffffffffffffffffffffffffffffffffffff1673ffffffffffffffffffffffffffffffffffffffff1673ffffffffffffffffffffffffffffffffffffffff1681526020016003820160009054906101000a900473ffffffffffffffffffffffffffffffffffffffff1673ffffffffffffffffffffffffffffffffffffffff1673ffffffffffffffffffffffffffffffffffffffff1681526020016004820160009054906101000a900473ffffffffffffffffffffffffffffffffffffffff1673ffffffffffffffffffffffffffffffffffffffff1673ffffffffffffffffffffffffffffffffffffffff168152602001600582015481526020016006820180546106c290611940565b80601f01602080910402602001604051908101604052809291908181526020018280546106ee90611940565b801561073b5780601f106107105761010080835404028352916020019161073b565b820191906000526020600020905b81548152906001019060200180831161071e57829003601f168201915b505050505081525050905080600001518160200151826060015183608001518460a00151955095509550955095505091939590929450565b85600060038111156107ae577f4e487b7100000000000000000000000000000000000000000000000000000000600052602160045260246000fd5b6001600083815260200190815260200160002060009054906101000a900460ff166003811115610807577f4e487b7100000000000000000000000000000000000000000000000000000000600052602160045260246000fd5b1461081157600080fd5b6000600381111561084b577f4e487b7100000000000000000000000000000000000000000000000000000000600052602160045260246000fd5b6001600089815260200190815260200160002060009054906101000a900460ff1660038111156108a4577f4e487b7100000000000000000000000000000000000000000000000000000000600052602160045260246000fd5b146108ae57600080fd5b60008590508073ffffffffffffffffffffffffffffffffffffffff1663dd62ed3e33306040518363ffffffff1660e01b81526004016108ee9291906116af565b60206040518083038186803b15801561090657600080fd5b505afa15801561091a573d6000803e3d6000fd5b505050506040513d601f19601f8201168201806040525081019061093e91906115d8565b87111561094a57600080fd5b8073ffffffffffffffffffffffffffffffffffffffff166323b872dd33308a6040518463ffffffff1660e01b8152600401610987939291906116d8565b602060405180830381600087803b1580156109a157600080fd5b505af11580156109b5573d6000803e3d6000fd5b505050506040513d601f19601f820116820180604052508101906109d99190611480565b6109e257600080fd5b60006040518060e001604052808581526020018981526020013373ffffffffffffffffffffffffffffffffffffffff1681526020018873ffffffffffffffffffffffffffffffffffffffff1681526020018773ffffffffffffffffffffffffffffffffffffffff168152602001868152602001600067ffffffffffffffff811115610a96577f4e487b7100000000000000000000000000000000000000000000000000000000600052604160045260246000fd5b6040519080825280601f01601f191660200182016040528015610ac85781602001600182028036833780820191505090505b508152509050806000808b8152602001908152602001600020600082015181600001556020820151816001015560408201518160020160006101000a81548173ffffffffffffffffffffffffffffffffffffffff021916908373ffffffffffffffffffffffffffffffffffffffff16021790555060608201518160030160006101000a81548173ffffffffffffffffffffffffffffffffffffffff021916908373ffffffffffffffffffffffffffffffffffffffff16021790555060808201518160040160006101000a81548173ffffffffffffffffffffffffffffffffffffffff021916908373ffffffffffffffffffffffffffffffffffffffff16021790555060a0820151816005015560c0820151816006019080519060200190610bf09291906112f7565b5090505060018060008b815260200190815260200160002060006101000a81548160ff02191690836003811115610c50577f4e487b7100000000000000000000000000000000000000000000000000000000600052602160045260246000fd5b02179055507f6ed79a08bf5c8a7d4a330df315e4ac386627ecafbe5d2bfd6654237d967b24f3898787604051610c8893929190611753565b60405180910390a1505050505050505050565b8060016003811115610cd6577f4e487b7100000000000000000000000000000000000000000000000000000000600052602160045260246000fd5b6001600083815260200190815260200160002060009054906101000a900460ff166003811115610d2f577f4e487b7100000000000000000000000000000000000000000000000000000000600052602160045260246000fd5b14610d3957600080fd5b8142600080838152602001908152602001600020600001541115610d5c57600080fd5b60008060008581526020019081526020016000206040518060e001604052908160008201548152602001600182015481526020016002820160009054906101000a900473ffffffffffffffffffffffffffffffffffffffff1673ffffffffffffffffffffffffffffffffffffffff1673ffffffffffffffffffffffffffffffffffffffff1681526020016003820160009054906101000a900473ffffffffffffffffffffffffffffffffffffffff1673ffffffffffffffffffffffffffffffffffffffff1673ffffffffffffffffffffffffffffffffffffffff1681526020016004820160009054906101000a900473ffffffffffffffffffffffffffffffffffffffff1673ffffffffffffffffffffffffffffffffffffffff1673ffffffffffffffffffffffffffffffffffffffff16815260200160058201548152602001600682018054610eab90611940565b80601f0160208091040260200160405190810160405280929190818152602001828054610ed790611940565b8015610f245780601f10610ef957610100808354040283529160200191610f24565b820191906000526020600020905b815481529060010190602001808311610f0757829003601f168201915b505050505081525050905060036001600086815260200190815260200160002060006101000a81548160ff02191690836003811115610f8c577f4e487b7100000000000000000000000000000000000000000000000000000000600052602160045260246000fd5b02179055506000816060015190508073ffffffffffffffffffffffffffffffffffffffff1663a9059cbb836040015184602001516040518363ffffffff1660e01b8152600401610fdd92919061170f565b602060405180830381600087803b158015610ff757600080fd5b505af115801561100b573d6000803e3d6000fd5b505050506040513d601f19601f8201168201806040525081019061102f9190611480565b61103857600080fd5b7fbddd9b693ea862fad6ecf78fd51c065be26fda94d1f3cad3a7d691453a38a735856040516110679190611738565b60405180910390a15050505050565b606081600260038111156110b3577f4e487b7100000000000000000000000000000000000000000000000000000000600052602160045260246000fd5b6001600083815260200190815260200160002060009054906101000a900460ff16600381111561110c577f4e487b7100000000000000000000000000000000000000000000000000000000600052602160045260246000fd5b1461111657600080fd5b60008060008581526020019081526020016000206040518060e001604052908160008201548152602001600182015481526020016002820160009054906101000a900473ffffffffffffffffffffffffffffffffffffffff1673ffffffffffffffffffffffffffffffffffffffff1673ffffffffffffffffffffffffffffffffffffffff1681526020016003820160009054906101000a900473ffffffffffffffffffffffffffffffffffffffff1673ffffffffffffffffffffffffffffffffffffffff1673ffffffffffffffffffffffffffffffffffffffff1681526020016004820160009054906101000a900473ffffffffffffffffffffffffffffffffffffffff1673ffffffffffffffffffffffffffffffffffffffff1673ffffffffffffffffffffffffffffffffffffffff1681526020016005820154815260200160068201805461126590611940565b80601f016020809104026020016040519081016040528092919081815260200182805461129190611940565b80156112de5780601f106112b3576101008083540402835291602001916112de565b820191906000526020600020905b8154815290600101906020018083116112c157829003601f168201915b50505050508152505090508060c0015192505050919050565b82805461130390611940565b90600052602060002090601f016020900481019282611325576000855561136c565b82601f1061133e57805160ff191683800117855561136c565b8280016001018555821561136c579182015b8281111561136b578251825591602001919060010190611350565b5b509050611379919061137d565b5090565b5b8082111561139657600081600090555060010161137e565b5090565b60006113ad6113a884611854565b61182f565b9050828152602081018484840111156113c557600080fd5b6113d08482856118fe565b509392505050565b6000813590506113e781611a12565b92915050565b6000815190506113fc81611a29565b92915050565b60008135905061141181611a40565b92915050565b60008151905061142681611a40565b92915050565b600082601f83011261143d57600080fd5b813561144d84826020860161139a565b91505092915050565b60008135905061146581611a57565b92915050565b60008151905061147a81611a57565b92915050565b60006020828403121561149257600080fd5b60006114a0848285016113ed565b91505092915050565b6000602082840312156114bb57600080fd5b60006114c984828501611402565b91505092915050565b6000602082840312156114e457600080fd5b60006114f284828501611417565b91505092915050565b6000806040838503121561150e57600080fd5b600061151c85828601611402565b925050602083013567ffffffffffffffff81111561153957600080fd5b6115458582860161142c565b9150509250929050565b60008060008060008060c0878903121561156857600080fd5b600061157689828a01611402565b965050602061158789828a01611456565b955050604061159889828a016113d8565b94505060606115a989828a016113d8565b93505060806115ba89828a01611402565b92505060a06115cb89828a01611456565b9150509295509295509295565b6000602082840312156115ea57600080fd5b60006115f88482850161146b565b91505092915050565b61160a816118ac565b82525050565b611619816118ca565b82525050565b600061162a82611885565b6116348185611890565b935061164481856020860161190d565b61164d81611a01565b840191505092915050565b600061166382611885565b61166d81856118a1565b935061167d81856020860161190d565b80840191505092915050565b611692816118f4565b82525050565b60006116a48284611658565b915081905092915050565b60006040820190506116c46000830185611601565b6116d16020830184611601565b9392505050565b60006060820190506116ed6000830186611601565b6116fa6020830185611601565b6117076040830184611689565b949350505050565b60006040820190506117246000830185611601565b6117316020830184611689565b9392505050565b600060208201905061174d6000830184611610565b92915050565b60006060820190506117686000830186611610565b6117756020830185611601565b6117826040830184611610565b949350505050565b600060408201905061179f6000830185611610565b81810360208301526117b1818461161f565b90509392505050565b600060208201905081810360008301526117d4818461161f565b905092915050565b600060a0820190506117f16000830188611689565b6117fe6020830187611689565b61180b6040830186611601565b6118186060830185611601565b6118256080830184611610565b9695505050505050565b600061183961184a565b90506118458282611972565b919050565b6000604051905090565b600067ffffffffffffffff82111561186f5761186e6119d2565b5b61187882611a01565b9050602081019050919050565b600081519050919050565b600082825260208201905092915050565b600081905092915050565b60006118b7826118d4565b9050919050565b60008115159050919050565b6000819050919050565b600073ffffffffffffffffffffffffffffffffffffffff82169050919050565b6000819050919050565b82818337600083830152505050565b60005b8381101561192b578082015181840152602081019050611910565b8381111561193a576000848401525b50505050565b6000600282049050600182168061195857607f821691505b6020821081141561196c5761196b6119a3565b5b50919050565b61197b82611a01565b810181811067ffffffffffffffff8211171561199a576119996119d2565b5b80604052505050565b7f4e487b7100000000000000000000000000000000000000000000000000000000600052602260045260246000fd5b7f4e487b7100000000000000000000000000000000000000000000000000000000600052604160045260246000fd5b6000601f19601f8301169050919050565b611a1b816118ac565b8114611a2657600080fd5b50565b611a32816118be565b8114611a3d57600080fd5b50565b611a49816118ca565b8114611a5457600080fd5b50565b611a60816118f4565b8114611a6b57600080fd5b5056fea2646970667358221220967b27f8fca72697b7d329fe0efe9140b9a20f9ced09eabdc246cbc643492f5164736f6c63430008010033",
  "linkReferences": {},
  "deployedLinkReferences": {}
}